:020000040800F2
:10000000900900209D0100084B260008A51F00084C
:100010004926000859080008952D00080000000036
:100020000000000000000000000000006F26000833
:100030000D090008000000006D2600087126000868
:10004000B7010008B7010008B7010008B7010008B0
:10005000B7010008B7010008B7010008B7010008A0
:10006000B7010008B7010008B7010008B701000890
:10007000B7010008B7010008B7010008B701000880
:10008000B7010008B7010008B7010008B701000870
:10009000B7010008B7010008B7010008B701000860
:1000A000B7010008B7010008B7010008B701000850
:1000B000B7010008B7010008B7010008B701000840
:1000C000B7010008B7010008B7010008B701000830
:1000D000B7010008652D0008712D00087D2D00086E
:1000E000B7010008B7010008B7010008B701000810
:1000F000B7010008B7010008B7010008B701000800
:10010000B7010008B7010008B7010008B7010008EF
:1001100091290008B7010008B7010008B7010008DD
:100120005D080008B7010008B7010008B701000822
:10013000B7010008B7010008B7010008B7010008BF
:10014000B7010008B7010008B7010008B7010008AF
:10015000B7010008B7010008B7010008892D0008A1
:10016000B7010008B7010008B7010008B70100088F
:10017000B7010008B7010008B7010008000000003F
:10018000B7010008B7010008DFF80CD000F07EFAD4
:1001900000480047B52D0008900900200648804718
:1001A00006480047FEE7FEE7FEE7FEE7FEE7FEE75C
:1001B000FEE7FEE7FEE7FEE7F926000889010008F2
:1001C0002DE9F05F0546002092469B46884606468C
:1001D000814640241BE0284641464746224600F01F
:1001E000D6F953465A46C01A914110D311461846C3
:1001F000224600F0BDF92D1A67EB01084F46224652
:100200000120002100F0B4F917EB00094E41201E37
:10021000A4F10104DFDC484631462A464346BDE8E6
:10022000F09FD2B201E000F8012B491EFBD27047CB
:100230000022F6E710B513460A4604461946FFF7B2
:10024000F0FF204610BD2DE9FE4F804681EA0300F5
:10025000C00F0C46009021F0004123F00045B8EBA0
:100260000200A94105D24046214690461C460B4655
:10027000024623F00040104347D0270DC7F30A0081
:10028000C3F30A510290401A019040286BDAC3F37D
:10029000130040F4801B0098924620B10023D2EB5B
:1002A000030A63EB0B0B01985946C0F1400250461C
:1002B00000F05EF906460D4650465946019A00F098
:1002C00076F910EB08006141002487EA115284EAB4
:1002D000E7731A4340D0009A62B3019A012A4FEAA9
:1002E000075215DC001B61EB02014FF0004202EAED
:1002F0000752CDE90042001C41F5801132462B46E1
:1003000000F076F903B0BDE8F08F40462146F9E7EA
:10031000001B61EB0201001C41F5801300185B41DA
:100320002018A2F5001747EB030140EAD570B61973
:100330006D4111E06D084FEA360645EAC0754FEA97
:100340000752001B61EB0201001C41F580114908B6
:100350004FEA30000019514132462B4603B0BDE848
:10036000F04F00F036B90098012240000023D0EB96
:10037000020263EBE073009821464FEAE074B8EBA9
:10038000000061EB0401E9E783F000435BE781F0E3
:10039000004158E72DE9FE4F81EA030404F00044D0
:1003A00021F0004100944FF0000B23F0004350EA8D
:1003B00001045ED052EA03045BD0C3F30A54C1F3D4
:1003C0000A552C44A4F2F3340194A0FB0254C1F367
:1003D000130141F48011C3F3130343F4801301FBB1
:1003E000024400FB034E840A970A44EA815447EA18
:1003F0008357A4FB076802958D0A05FB07854FEA22
:10040000932C04FB0C542705029D4FEA065847EA3B
:100410001637B5EB08056EEB070C870E920E47EA10
:10042000811742EA8312A7FB0201B6EB0B0164EBD2
:1004300000042B0D43EA0C335E1844EB1C50DA46E3
:100440005146E7FB0201C5F313044FEA0B3343EABD
:1004500014534FEA0432019C43EA0603A4F10C044E
:100460000294009CCDE900B400F0C2F803B0BDE8EE
:10047000F08F00200146F9E72DE9F04D81EA0304F1
:1004800004F0004B21F0004514464FF0000A23F021
:10049000004150EA050220D054EA01021DD0C5F304
:1004A0000A570246C5F31303C1F31300C1F30A56FA
:1004B00040F4801543F48013A7EB0608101BD646C2
:1004C00008F2FD3873EB050002D308F1010801E0E2
:1004D00092185B41B8F1000F03DA00200146BDE835
:1004E000F08D00204FF48011064684460EE0171B65
:1004F00073EB050705D3121B63EB050306434CEAB8
:10050000010C49084FEA300092185B4150EA01079C
:10051000EDD152EA030012D082EA040083EA050119
:10052000084305D0101BAB4106D20122002306E090
:1005300000224FF0004302E06FF0010253101AEB6B
:1005400006004CEB085110EB0A0041EB0B01BDE833
:10055000F04D00F03EB80EB540F23341029100215B
:10056000CDE900110A460B4600F042F803B000BD89
:10057000202A04DB203A00FA02F100207047914063
:10058000C2F1200320FA03F3194390407047202A58
:1005900004DB203A21FA02F00021704721FA02F32D
:1005A000D040C2F120029140084319467047202AEA
:1005B00006DBCB17203A41FA02F043EAE07306E08B
:1005C00041FA02F3D040C2F120029140084319469B
:1005D000704710B5141E73F1000408DA401C41F195
:1005E000000192185B411A4301D120F0010010BDB7
:1005F0002DE9F04D92469B4611B1B1FA81F202E02D
:10060000B0FA80F220329046FFF7B2FF04460F4660
:1006100040EA0A0041EA0B0153465A46084313D008
:10062000114653EA010019D0C8F140025046FFF7C5
:10063000AEFF05460E46504659464246FFF798FF24
:10064000084305D0012004E020463946BDE8F08D7E
:100650000020054346EAE0762C4337430A986305B9
:10066000E40AA0EB08000022FD0A44EA47540A30DD
:1006700002D500200146E9E7010510196941DDE9CD
:10068000084500196941BDE8F04DA2E7064C074D49
:1006900006E0E06840F0010394E807009847103452
:1006A000AC42F6D3FFF774FD483200086832000808
:1006B00010B50146806B026C12F0500F05D0806BB4
:1006C000C26CBDE8104008461047016C41F400714F
:1006D000016401688A6812F0405F17D18269AAB983
:1006E000CA6A12F4700F02D08A6852050ED44A68A2
:1006F00022F020024A60016C21F480710164016CD7
:10070000C90403D4016C41F00101016400F0A6F9B1
:1007100010BD10B5806B40210164416C41F00401B3
:10072000416400F09DF910BD10B5806B00F097F9A1
:1007300010BD0000454910B54A6822F440324A60B5
:100740004A6843681A434A6001684A6822F4807222
:100750004A6001684A68036942EA03224A60016804
:100760004A6822F040724A6001684A6883681A4306
:100770004A6001688A6822F400628A6001688A68B7
:10078000C3681A438A60816A6FF07062D14201685F
:100790008A6822F070628A6001688A680CD0836A75
:1007A0001A438A6001688A6822F040528A600168B0
:1007B0008A68C36A1A4301E022F040528A600168E5
:1007C0008A6822F002028A6001688A68836942EAC4
:1007D00043028A60016A002901684A680FD042F426
:1007E00000624A6001684A6822F460424A60016817
:1007F0004A68174C436A04EB43331A4301E022F47E
:1008000000624A600168CA6A22F47002CA62016822
:10081000CA6A838B0F4C04EB03531A43CA62016804
:100820008A6822F400728A6001688A68036B42EA6F
:1008300043228A6001688A6822F480628A600168C3
:100840008A68406942EA8020886010BD0023014028
:1008500000E0FFFF0000F0FFFEE70000014800F0AD
:1008600019BA0000C002002001681823CAB2103A69
:10087000B2FBF3F2054B6FF30901032A9B5CC365DE
:1008800000D9091D8165084670470000283200081C
:1008900010B5014600208B698A6A4FF0C07453B1CD
:1008A000B3F5005F15D072B1012A0CD0022A0AD02C
:1008B000032A09D104E01AB1012A06D0022A03D181
:1008C000C96AC90100D5012010BDC96AA142FAD088
:1008D00010BD002AF7D0012AF2D0022AF3D0032A51
:1008E000F3D010BD30B50468256825F48025256057
:1008F000046863608368402B036803D099600068D4
:10090000C26030BD9A600068C16030BD70477047FA
:1009100078B50024009490F83C20012A19D00122D7
:1009200080F83C200A6807230568092A13D9EE6875
:100930000A3A02EB420293409E43EE600B788A68CB
:100940000A3B03EB43039A400368DD682A43DA60FD
:1009500010E0022078BD2E6902EB420293409E43D4
:100960002E610B788A6803EB43039A4003681D6984
:100970002A431A614A681F23072A13D205686E6B3F
:10098000521E02EB820293409E436E630B790A88EB
:100990005B1E92B203EB83039A4003685D6B2A43AC
:1009A0005A6327E005680D2A12D22E6BD21F02EB84
:1009B000820293409E432E630B790A88DB1F92B21A
:1009C00003EB83039A4003681D6B2A431A6311E00B
:1009D000EE6A0D3A02EB820293409E43EE620B797F
:1009E0000A880D3B92B203EB83039A400368DD6AE9
:1009F0002A43DA62164B0568144A9D4206D10D68F7
:100A0000122D03D1556845F48005556005689D4257
:100A100018D10B68102B01D0112B13D1536843F45C
:100A200000035360096810290CD10A490A4A096871
:100A3000B1FBF2F101EB8101490000E0491E009198
:100A40000029FBD180F83C40002078BD0023014004
:100A5000002001401C00002040420F0070477047FA
:100A6000704770B504004FF0000503D0206C0026DD
:100A700010B107E0012070BD666484F83C60204638
:100A800000F01AF8206CC00610D4206C20F48850B6
:100A900040F0020020642046FFF74CFE6664206CA4
:100AA00020F0020040F00100206400E0012584F8FD
:100AB0003C60284670BD000070B586B00646142123
:100AC0006846FFF7B5FB24493068884242D1234885
:100AD0000025016841F48071016000681F4900F43D
:100AE000807014390590086840F0010008600868BB
:100AF00000F001000590086840F0020008600868F6
:100B0000032400F002000590FF208DE831006946C3
:100B1000134800F035FA009469461248CDE90145C2
:100B200000F02EFA114C1048C4E900050015A5602C
:100B3000C4E90350400060618000A0614011C4E935
:100B400007052046656200F075F908B1FFF7DFFE82
:100B5000B463A66306B070BD002001404438024073
:100B6000000002400004024010640240C002002065
:100B7000F8B50E4600210446009190F83C0001288B
:100B800007D0012084F83C0020688368DB0702D08E
:100B900011E00220F8BD836843F0010383602D4813
:100BA0002D4B0068B0FBF3F000EB400000E0401E6E
:100BB00000900028FBD120688368DB0748D0236CB5
:100BC00040F20165AB4343F4807323644068400501
:100BD00005D5206C20F4005040F480502064206C37
:100BE000C00404D5606C20F00600606400E061641D
:100BF00084F83C10A16B1A48184DC863A16B1948C2
:100C00000864A16B1848C86421686FF0220008606E
:100C10002068416841F0806141602068816841F44A
:100C2000807181602168134632464C31A06B00F020
:100C30006BF96868C006206802D00C49884207D169
:100C4000816811F0405F03D1816841F0804181608B
:100C50000020F8BD1C00002040420F00002301408E
:100C6000B10600082907000813070008002001400A
:100C700090F83510022903D080214165012070478A
:100C8000052180F835100068016821F0010101603C
:100C9000002070472DE9F84304464FF00009CDF8D5
:100CA000009063484FF41651A56D0068B0FBF1F752
:100CB0002E6894F85C10082000FA01F131420FD040
:100CC00021680A6852070BD50A6822F004020A60FC
:100CD00094F85C108840A860606D40F00100606589
:100CE00094F85C104FF0010808FA01F0304208D087
:100CF00021684969090604D5A860606D40F00200CA
:100D0000606594F85C1004208840304208D0216867
:100D10000968890704D5A860606D40F0040060652B
:100D200094F85C1010208840304218D0216809687F
:100D3000090714D5A86020680168490304D5006834
:100D4000000308D5A16C07E00168C90503D4016858
:100D500021F008010160216C09B12046884794F810
:100D60005C1020208840304231D021680968C906D3
:100D70002DD5A86094F8350005282068016806D0B4
:100D8000490347D5006800031DD4616C1CE021F0C5
:100D9000160101602068416921F080014161206CE9
:100DA00008B9A06C20B12068016821F00801016039
:100DB00094F85C103F208840A86084F8349084F850
:100DC0003580216D1FE0E16B09B120468847606DD9
:100DD00000282BD0606DC00714D0052084F83500A2
:100DE0002068016821F0010101600098401C00901A
:100DF000B84203D820680068C007F6D184F8349060
:100E000084F83580E16C002910D001B02046BDE89F
:100E1000F04308470168C905D5D4016821F01001E5
:100E2000016084F8349084F83580CCE7BDE8F8831D
:100E30001C0000202DE9F041044600F07FF9064631
:100E40005CB1002584F83450022084F83500206815
:100E5000016821F0010101600DE00120BDE8F08191
:100E600000F06CF9801B052805D92020606503205F
:100E700084F83500F2E720680068C007F0D12268E6
:100E8000116820480140D4E901031843D4E903362E
:100E90003343184363691843A3691843E36918434C
:100EA000236A18430843616A042903D1D4E90B1368
:100EB00019430843106020684069666A20F0070102
:100EC00030460E43012704280CD1A06A0643E06A8D
:100ED00040B12046FFF7DCFC20B14020606584F87B
:100EE0003570BAE7206846612046FFF7BDFC94F8EC
:100EF0005C203F2191408160656584F83570002059
:100F0000ACE700003F8010F02DE9F0410446866D0B
:100F100090F83400002501280DD0012084F8340019
:100F200094F835700020012F07D084F83400022592
:100F30002846BDE8F0810220FBE7022784F83570DF
:100F400060652046FFF7CEFC94F85C103F20884097
:100F5000B0602068016841F01601016020684169B5
:100F600041F080014161206C20B12068016841F0AE
:100F7000080101602068016841F001010160D7E7C4
:100F80002DE9F84FDFF87CB100224FF001084FF057
:100F9000030A4FF00F090BF1040E00BF0B6808FAAB
:100FA00002F42340A3426ED14D68022D01D0122DD0
:100FB0000ED1D50800EB850CDCF820505607F70E53
:100FC00009FA07F6B5430E69BE402E43CCF82060FF
:100FD000066855000F790AFA05FC07F0030726EAB0
:100FE0000C06AF40374307604E68012E05D0022E35
:100FF00003D0112E01D0122E0ED18668CF6826EABA
:101000000C06AF40374387604668A6430C79C4F3AB
:101010000014944034434460C6688C6826EA0C0689
:10102000AC403443C4604C68E40065D5364C256858
:1010300045F480452560246822F0030504F48044CB
:101040000094324C2E19D6F8084895072F0F09FA4C
:1010500007F5AC432E4DA84201D1002524E02D4DCB
:10106000A84201D101251FE02B4DA84201D1022544
:101070001AE02A4DA84201D1032515E0284DA842C7
:1010800002D1042510E037E0264DA84201D1052504
:101090000AE0254DA84201D1062505E0234DA842CE
:1010A00001D1072500E00825BD402543C6F80858B2
:1010B000DBF800405D464E689C43F60300D51C43B8
:1010C0002C60DEF8004075464E689C43B60300D5A0
:1010D0001C432C600B4D08352C684E689C43F6026F
:1010E00000D51C432C60074D0C352C684E689C4382
:1010F000B60200D51C432C60521C102AFFF44EAFE0
:10110000BDE8F88F003C0140443802400030014007
:10111000000002400004024000080240000C0240AF
:10112000001002400014024000180240001C02405F
:101130000AB1816170470904FBE70000014880683B
:1011400070470000100000200248816802781144B6
:1011500081607047100000200B4810B5016841F411
:1011600000710160016841F480610160016841F42F
:1011700080710160032000F06DF8002000F006F897
:1011800000F024F8002010BD003C024070B50D4D69
:1011900004464FF47A712878B1FBF0F00A490968E7
:1011A000B1FBF0F000F0DEFA48B9102C07D20022B3
:1011B0002146501E00F02EF800206C6070BD01200A
:1011C00070BD0000100000201C0000200A4808B577
:1011D000016841F480410160006800F480400090A3
:1011E0000548001F016841F080510160006800F06F
:1011F0008050009008BD00004438024000F01F02FB
:10120000012191404009800000F1E020C0F8001168
:1012100070470000F0B40E4B1B680C46C3F302236A
:10122000C3F10705042D00D90425191D072901D292
:10123000002300E0DB1E012606FA05F1491E2140CD
:1012400099409E40761E16403143F0BC01F0FEB935
:101250000CED00E0064900F0070208684FF6FF03B6
:10126000184040EA0220034A10430860704700001B
:101270000CED00E00000FA052DE9F0470E460500F0
:1012800065D0DFF81481D8F80000F7B200F00F0045
:10129000B04207D288F80070D8F8000000F00F00C4
:1012A000B04254D128683D4C810712D5400703D580
:1012B000206840F4E05020602878000703D52068BB
:1012C00040F4604020602068A96820F0F0000843E6
:1012D00020602878C0072DD0304968680839012877
:1012E00012D0022813D0032811D0096889070029D9
:1012F0002DDA216821F0030101432160FFF71EFF71
:10130000814641F2883A0EE009688903EFE70968EF
:101310008901ECE7FFF712FFA0EB0901514502D963
:101320000320BDE8F0872068696800F00C00B0EB8E
:10133000810FEFD1D8F80010404601F00F01B14203
:1013400007D90770006800F00F00B04201D00120FB
:10135000E7E72878400705D52068E96820F4E050E1
:10136000084320602878000706D52068296920F402
:10137000604040EAC100206000F036F82168084A69
:10138000C1F30311515CC840064908600020FFF713
:10139000FDFE0020C5E70000003C02400838024086
:1013A000303200081C000020044805490068096824
:1013B000044AC1F38221515CC84070471C000020E0
:1013C00008380240403200080448054900680968AE
:1013D000044AC1F34231515CC84070471C000020F0
:1013E0000838024040320008154810B5006810F077
:1013F0000C02144813D04110042A0FD0082A0ED131
:101400000F4C241F2268236802F03F025B0207D5BD
:101410002068C0F38810A0FB010106E0084610BD5B
:101420002168C1F38811A1FB00010023FEF7C8FE6B
:101430002168C1F30141491C4900B0FBF1F010BD26
:10144000083802400024F4002DE9F84F050076D05A
:101450002878DFF8F8B2BE4CC00749D0DBF800109E
:101460005846C1F38101012908D00068C0F381000A
:1014700002280AD1201D0068400206D5206880039A
:1014800036D568680028E2D032E06868B0F5803F61
:1014900010D0B0F5A02F206810D020F4803020604C
:1014A000206820F4802020606868A0B1FFF746FE25
:1014B00006460CE0206840F48030F4E740F48020D9
:1014C0002060F7E7FFF73AFE801B642873D8206896
:1014D0008003F7D50CE0FFF731FE064605E000BFBC
:1014E000FFF72CFE801B6428F0D820688003F7D417
:1014F0002878DFF8608280074FF000093ED5DBF8DE
:101500000010584611F00C0F09D00068C0F381009C
:1015100002280BD18D48001F0068400206D42068C5
:10152000800715D5E868012809D111E0E868B8B14D
:101530000120C8F80000FFF701FE064605E002E1C1
:10154000FFF7FCFD801B0228C0D820688007F7D574
:101550002068296920F0F80040EAC10020600DE011
:10156000C8F80090FFF7EAFD064604E0FFF7E6FD45
:10157000801B02281FD820688007F7D4287800072E
:1015800022D5724E744869696C3671B101210160CF
:10159000FFF7D4FD074604E0FFF7D0FDC01B02288B
:1015A00009D830688007F7D50EE0C0F80090FFF743
:1015B000C5FD074605E083E0FFF7C0FDC01B02281C
:1015C0007ED830688007F7D42878400768D5DFF8E0
:1015D0007CA100270AF1380ADAF80000C0000BD419
:1015E000DAF8001041F08051CAF80010DAF8000073
:1015F000012700F080500090584E3068C00510D48C
:10160000306840F480703060FFF798FD009005E08E
:10161000FFF794FD0099401A022851D83068C005A0
:10162000F6D54A4EA868683601280FD005283068DC
:1016300010D020F001003060306820F004003060ED
:10164000A868B8B1FFF77AFD00900FE0306840F06D
:101650000100F4E740F004003060F7E7FFF76EFDAB
:101660000099411A41F28830814264D8306880077D
:10167000F4D50EE0FFF762FD009007E0FFF75EFD96
:101680000099411A41F28830814254D8306880076D
:10169000F4D42FB1DAF8001021F08051CAF800100C
:1016A000A869C0B3DBF80010C1F3810102294AD058
:1016B0000228484607D0C8F86000FFF73FFD00E069
:1016C00039E005463AE04746C8F86000FFF736FDC6
:1016D000064604E0FFF732FD801B02282BD8206865
:1016E0008001F7D4D5E907010843A96A1C4A4908D3
:1016F00002EB01416A6A41EA8211084395F82C1015
:1017000040EA01611148001F016001203866FFF7BF
:1017100015FD054605E014E0FFF710FD401B02280B
:1017200009D820688001F7D50BE000BFFFF706FD60
:10173000401B022802D90320BDE8F88F20688001F1
:10174000F4D40020F8E70120F6E700000838024052
:101750000038024000004742800E474200700040BF
:101760000000FFFF10B5401EB0F1807F01D30120C3
:1017700010BD4FF0E02460610F21601700F066FF9C
:101780000020A06107202061002010BD10B590F856
:101790003820012A25D0012280F83820CA688C68B8
:1017A00022F4407222434C6822F4806222430C6887
:1017B00022F4006222430C6922F4805222434C69D5
:1017C00022F4005222438C6922F48042224322F404
:1017D0000041026800232143516480F83830002022
:1017E00010BD022010BD30B590F83820012A20D05D
:1017F000012280F83820022380F8393003685C68C1
:1018000024F070045C6003685C680D682C435C60C5
:1018100003689C6824F080049C6003689C684968A5
:101820000C439C6080F83920002180F8381008466D
:1018300030BD022030BD000070B586B004461421D2
:101840006846FEF7F5FC3D4B226800253C49022422
:1018500001263C489A420DD10A6842F010020A6003
:10186000096801F0100105914FF4D4418DE8320070
:10187000694636E0B2F1804F13D0334B9A4236D1ED
:10188000086840F0040008600868694600F0040039
:1018900005904FF470708DE8310003942B48049448
:1018A00021E0086840F002000860086800F00200CB
:1018B0000590086840F0010008600868694600F07B
:1018C0000100059040F608408DE83100CDE903465F
:1018D0001F48FFF755FB4FF400408DE831001D48CD
:1018E0006946CDE90346FFF74BFB06B070BD1A4BC6
:1018F0009A4210D1086840F00800086008686946FC
:1019000000F0080005904FF470408DE8310003941A
:1019100012480494E7E7124B9A42E6D10A6842F073
:1019200010020A60096801F01001059160218DE83C
:1019300032000321CDE903416946D4E700000140AC
:10194000303802400010024000040040000802400D
:10195000000402400000024000080040000C024069
:101960000040014070B5044690F838000D4601284B
:101970000DD0012684F83860022084F8390042B185
:10198000042A18D0082A2AD00C2A4DD139E0022086
:1019900070BD206800F046FF2068816941F00801B1
:1019A00081612068816921F0040181612068816979
:1019B0002A69114311E0206800F060FF2068816906
:1019C00041F4006181612068816921F48061816155
:1019D000206881692A6941EA0221816124E0206846
:1019E00000F07EFF2068C16941F00801C1612068F4
:1019F000C16921F00401C1612068C1692A691143EC
:101A000011E0206800F09CFF2068C16941F400618A
:101A1000C1612068C16921F48061C1612068C16928
:101A20002A6941EA0221C16184F83960002084F802
:101A3000380070BD10B5040003D094F8390010B11F
:101A400007E0012010BD002084F83800204600F097
:101A50000DF8022084F83900211D206800F076FE80
:101A6000012084F83900002010BD000008B501688D
:101A70001C481D4A814205D1106840F001001060E9
:101A8000106814E01848001FB1F1804F0AD0174BBE
:101A9000994210D1016841F002010160006800F034
:101AA000020006E0016841F001010160006800F0F9
:101AB0000100009008BD0E4B994207D1016841F02A
:101AC00004010160006800F00400F2E70948814267
:101AD000F0D1106840F480301060106800F480305D
:101AE000E7E70000000001404438024000040040E5
:101AF000000800400040014010B504460068012283
:101B000000F084FE08492068884202D007498842D4
:101B100003D1416C41F4004141642068016841F007
:101B200001010160002010BD0000014000040140DF
:101B30007047000070B5026804461068D1685369A8
:101B400010F00F0F51D003F0010501F490763543EA
:101B50005DD0C20705D0CA0503D5E26B42F0010291
:101B6000E263420705D5DA0703D0E26B42F00202D6
:101B7000E263820705D5DA0703D0E26B42F0040284
:101B8000E263020705D5DA0703D0E26B42F00802F0
:101B9000E263E26B002A34D0800604D5880602D5C1
:101BA000204600F011FF20684069E16BC0F380100F
:101BB00001F008010143204624D000F0F7FE206820
:101BC000416949061AD5416921F040014161606BC4
:101BD000A0B11B490165606BFFF74AF8002810D0DF
:101BE000606B016DBDE87040084783060FD58B061A
:101BF0000DD52046BDE8704000F0E6BE2046FFF758
:101C000097FF70BDFFF794FF0020E06370BD0306EF
:101C100006D50B0604D52046BDE8704001F070B82B
:101C20004006F3D54806F1D5D168204621F04001A1
:101C3000D160202184F8391000F0B3F970BD0000A4
:101C40009D29000870B5040004D094F839000025DF
:101C500010B106E0012070BD84F83850204600F035
:101C600023F8242084F839002068C16821F4005149
:101C7000C160204600F0EEFE2068016921F4904129
:101C800001612068416921F02A0141612068C16831
:101C900041F40051C160E563202084F8390084F8E4
:101CA0003A00002070BD00002DE9F04387B00446E3
:101CB00014216846FEF7BCFA5F485E4A26685E4912
:101CC00010380223012403254FF0080C96421DD141
:101CD0000A6842F400220A60096801F400210591B3
:101CE000016841F0040101600068694600F00400E9
:101CF0000590A8028DE839105048FFF741F90022FD
:101D000011463420FFF786FA342024E04A4ADFF8EF
:101D10003081121D0727464522D1116841F010017C
:101D20001160116801F010010591016841F0010195
:101D300001600068694600F0010005904FF4C06042
:101D40008DE8B9003F48FFF71BF900221146252016
:101D5000FFF760FA2520FFF751FA07B0BDE8F083DE
:101D6000DFF8E480DFF8E49046451DD10A6842F4CC
:101D700000320A60096801F400310591016841F000
:101D8000080101600068694600F0080005906020C5
:101D90008DE8B9004846FFF7F3F8002211462620E7
:101DA000FFF738FA2620D6E7DFF8A48046451ED193
:101DB0000A6842F480220A60096801F480210591D2
:101DC000016841F0080101600068694600F0080000
:101DD00005904FF440708DE8B9004846FFF7D0F801
:101DE000002211462720FFF715FA2720B3E71949EB
:101DF0008E42B2D1116841F020011160116801F0EA
:101E000020010591016841F04001016000686946C8
:101E100000F0400005904FF484408DE839100E48E2
:101E2000FFF7AEF8002211464720FFF7F3F94720ED
:101E300091E70000004C004040380240000802409A
:101E4000001001400000024000440040000C02402D
:101E500000480040001401400018024090F83A3059
:101E6000202B1DD1D1B1CAB190F83830012B17D039
:101E700081628285C2850021C163222280F83A20D6
:101E800080F8381001684A6942F001024A6100682E
:101E9000C16841F49071C160002070470120704713
:101EA0000220704710B500682349884208D10A22F1
:101EB0002249234800F056F80A222049204836E0FB
:101EC000204988420AD11D490A2214311E4800F0D7
:101ED00049F81A490A2214311B4828E01B49884254
:101EE0000AD116490A222831194800F03BF8134953
:101EF0000A22283116481AE0164988420AD10F49A9
:101F00000A223C31144800F02DF80C490A223C31D9
:101F100011480CE0114988420DD108490A2250317C
:101F20000F4800F01FF805490A220D485031BDE85E
:101F30001040FFF793BF10BD0010014020000020AB
:101F40008C04002000440040CC04002000480040E5
:101F50000C050020004C00404C04002000140140FF
:101F60004C05002090F83930202B18D1A9B1A2B12E
:101F700090F83830012B12D001628284C284002193
:101F8000C163212280F8392080F838100068C168C8
:101F900041F08001C160002070470120704702209D
:101FA00070477047FEE700007FB500254148009567
:101FB000019502953E490395016001244FF480315B
:101FC0000461C0E901153C490562C0E90A150A2609
:101FD000C560C0E9064604634461FEF742FD08B1EE
:101FE000FEF795FCCDE90054694632480295FEF7AC
:101FF0008FFC08B1FEF78BFC0094022469462D4843
:102000000194FEF785FC08B1FEF781FC00940324DF
:10201000694628480194FEF77BFC08B1FEF777FC7F
:1020200000940424694623480194FEF771FC08B12A
:10203000FEF76DFC0094052469461E480194FEF7E6
:1020400067FC08B1FEF763FC009406246946194852
:102050000194FEF75DFC08B1FEF759FC00940724DB
:10206000694614480194FEF753FC08B1FEF74FFC93
:102070000094082469460F480194FEF749FC08B112
:10208000FEF745FC0094092469460A480194FEF7CE
:102090003FFC08B1FEF73BFCCDE900466946054828
:1020A000FEF736FC002801D0FEF731FC7FBD0000B2
:1020B00000200140780200200100000F094808B507
:1020C000016841F4800101600068002200F4800092
:1020D000009011463820FFF79DF8BDE808403820F1
:1020E000FFF78CB8303802402DE9F04F87B014214B
:1020F0006846FEF79DF844480024016841F010014D
:102100000160016801F010010591016841F00401CE
:102110000160016801F004010591016841F02001AE
:102120000160016801F020010591016841F0800122
:102130000160016801F080010591016841F0010131
:102140000160016801F001010591016841F002019F
:102150000160016801F002010591016841F0080188
:102160000160016801F008010591016841F040013A
:1021700001600068DFF8948000F040004FF4704583
:102180000590002229464046FEF7D2FFDFF88090F6
:1021900040F2FF36002231464846FEF7C9FFDFF81D
:1021A00074A04FF4FC77002239465046FEF7C0FF7A
:1021B000DFF864B000221F215846FEF7B9FF0095F2
:1021C0000125CDE90154694640460394FEF7D8FE47
:1021D0000096CDE90154694648460394FEF7D0FEC7
:1021E0000097CDE90154694650460394FEF7C8FEB6
:1021F0001F200090CDE90154694658460394FEF72C
:10220000BFFE07B0BDE8F08F303802400008024042
:102210000014024000180240000C024010B590B0BB
:1022200000240E941C2168460F94FEF701F81C212F
:1022300007A8FDF7FDFF2C482A4901602A21C0E9C3
:10224000011442F21071C0E903144461FFF7F2FB7C
:1022500008B1FEF75CFB0E940EA923480F94FFF71C
:10226000C2FA08B1FEF753FB6020CDE900040294E6
:10227000039404940594002269461B480694FFF7D2
:1022800071FB08B1FEF743FB042269461648FFF7CD
:1022900069FB08B1FEF73BFB082269461248FFF7CD
:1022A00061FB08B1FEF733FB0C2269460E48FFF7CD
:1022B00059FB08B1FEF72BFB0794089409944FF4DF
:1022C00000500A94CDE90B4007A907480D94FFF789
:1022D0005DFA08B1FEF71BFB0348FFF7ADFA10B03B
:1022E00010BD0000000001402003002010B58AB09E
:1022F000002407941C2168460894FDF799FF2148A3
:102300004FF0804101601521C0E9011442F21071C3
:10231000C0E90314FFF78EFB08B1FEF7F8FA079443
:1023200007A918480894FFF75EFA08B1FEF7EFFA1C
:102330006020CDE90004029400226946114804940B
:10234000FFF710FB08B1FEF7E2FA042269460D48D8
:10235000FFF708FB08B1FEF7DAFA082269460948D8
:10236000FFF700FB08B1FEF7D2FA0C2269460548D8
:10237000FFF7F8FA08B1FEF7CAFA0248FFF75CFA6D
:102380000AB010BD5C03002010B58AB00024079489
:102390001C2168460894FDF74BFF22482049016044
:1023A0001521C0E9011442F21071C0E90314FFF7CE
:1023B00041FB08B1FEF7ABFA079407A91948089446
:1023C000FFF711FA08B1FEF7A2FA6020CDE9000488
:1023D00002940022694613480494FFF7C3FA08B137
:1023E000FEF795FA042269460E48FFF7BBFA08B1DA
:1023F000FEF78DFA082269460A48FFF7B3FA08B1DA
:10240000FEF785FA0C2269460648FFF7ABFA08B1D9
:10241000FEF77DFA0348FFF70FFA0AB010BD00007F
:10242000000400409803002010B58AB000240794EF
:102430001C2168460894FDF7FBFE224820490160F4
:102440001521C0E9011442F21071C0E90314FFF72D
:10245000F1FA08B1FEF75BFA079407A91948089446
:10246000FFF7C1F908B1FEF752FA6020CDE9000488
:1024700002940022694613480494FFF773FA08B1E6
:10248000FEF745FA042269460E48FFF76BFA08B1D9
:10249000FEF73DFA082269460A48FFF763FA08B1D9
:1024A000FEF735FA0C2269460648FFF75BFA08B1D9
:1024B000FEF72DFA0348FFF7BFF90AB010BD000080
:1024C00000080040D403002010B588B01C216846E5
:1024D000FDF7AEFE15481449002401602A21C0E929
:1024E000011442F21071C0E90314FFF7A3FA08B116
:1024F000FEF70DFA6020CDE900040294002269463F
:102500000A480494FFF72EFA08B1FEF700FA0422F5
:1025100069460648FFF726FA08B1FEF7F8F90348BE
:10252000FFF78AF908B010BD0040014010040020F8
:102530000C4810B50A4901604FF4E13141600021B7
:1025400081600C22C160C0E904128161C161FFF7A2
:1025500079FB002803D0BDE81040FEF7D8B910BDC4
:10256000004C00404C0400200C4810B50A490160A2
:102570004FF4E1314160002181600C22C160C0E96B
:1025800004128161C161FFF75DFB002803D0BDE843
:102590001040FEF7BCB910BD001001408C040020B3
:1025A0000C4810B50A4901604FF4E1314160002147
:1025B00081600C22C160C0E904128161C161FFF732
:1025C00041FB002803D0BDE81040FEF7A0B910BDC4
:1025D00000440040CC0400200C4810B50A490160BA
:1025E0004FF4E1314160002181600C22C160C0E9FB
:1025F00004128161C161FFF725FB002803D0BDE80B
:102600001040FEF784B910BD004800400C050020C2
:102610000C4810B50A4901604FF4E13141600021D6
:1026200081600C22C160C0E904128161C161FFF7C1
:1026300009FB002803D0BDE81040FEF768B910BDC3
:10264000001401404C050020FEE770470907090E01
:10265000002806DA00F00F0000F1E02080F8141DD9
:10266000704700F1E02080F8001470477047704711
:10267000FEF76ABD30B593B030216846FDF7D8FD4E
:1026800014210CA8FDF7D4FD19480025016841F07C
:1026900080510160006800F0805011901548016879
:1026A00041F4804101600068022400F480401190F0
:1026B00001200090000401908001CDE9064008AAA5
:1026C0000420A82182E813000B906846FEF7BCFEA8
:1026D0000CA90F2081E831004FF4A0500F90E002C8
:1026E000109005210CA8FEF7C7FD13B030BD000007
:1026F00040380240007000401048016841F4700109
:1027000001600F48016841F0010101600C4A00219D
:102710000832116002680B4B1A400260031D0A4A1E
:102720001A60026822F48022026005480C300160C1
:1027300002495806803908607047000088ED00E0C3
:1027400000380240FFFFF6FE10300024F0B50268AA
:10275000234B244D244E254F254C4FF0804C98425E
:1027600009D0604507D0A84205D0B04203D0B84296
:1027700001D0A04204D122F0700E4A6842EA0E0253
:1027800098421BD0604519D0A84217D0B04215D04E
:10279000B84213D0A04211D0164DA8420ED0164D0B
:1027A000A8420BD0154DA84208D0154DA84205D01F
:1027B000144DA84202D0144DA84203D122F4407512
:1027C000CA682A4302608A68C2620A6882629842C2
:1027D00001D0A04201D10969016301214161F0BD2D
:1027E000000001400004004000080040000C0040D0
:1027F0000004014000400140004401400048014005
:1028000000180040001C00400020004010B50123CB
:10281000046A8B409C430462036A8A401343036248
:1028200010BD000030B5026A22F001020262026AA5
:10283000436884690D6824F07304254322F0020480
:102840008A6822430B4CA04202D00B4CA0420BD111
:1028500022F00804CA6823F4407322434C6922F032
:1028600004021C438B6923434360856149684163CB
:10287000026230BD000001400004014030B5026A30
:1028800022F010020262026A436884690D6824F42F
:10289000E64444EA05248D6822F0200242EA05124B
:1028A0000D4DA84202D00D4DA8420ED1CD6822F0A8
:1028B000800242EA05124D6923F4406343EA85032E
:1028C0008D6922F0400243EA8503436084614968D0
:1028D0008163026230BD000000000140000401403D
:1028E00030B5026A22F480720262036A4268C469E7
:1028F00023F4007324F073050C682C438D6843EABD
:1029000005230D4DA84202D00C4DA8420ED1CD6832
:1029100023F4006343EA05234D6922F4405242EA5E
:1029200005128D6923F4806342EA05124260C46196
:102930004968C163036230BD0000014000040140EA
:1029400030B5026A22F480520262046A4268C369A6
:102950000D6823F4E64343EA05238D6824F400540C
:1029600044EA0534084DA84202D0084DA84204D1DB
:102970004D6922F4804242EA85124260C36149688F
:102980000164046230BD0000000001400004014009
:102990000148FFF7CFB800004C04002010B5806B51
:1029A0000021C185C184FFF7C3F810BD0168CA6862
:1029B00022F49072CA6001684A6922F001024A61F9
:1029C000202180F83A10704710B590F83A1022296B
:1029D00001D0022010BD8168B1F5805F11D001697E
:1029E000002901681FD0496801F07F03816A4A1CF1
:1029F00082620B70C18D491E0904090CC18518D073
:102A000026E00269816A002A0268526805D0D2B2C3
:102A10000A80816A491C8162ECE7C2F308020A80DD
:102A2000816A891CF7E74A68816A4B1C83620A70D5
:102A3000E0E70168CA6822F49072CA6001684A69D6
:102A400022F001024A61202180F83A10FFF72AFAA9
:102A5000002010BD2DE9F04104460068016921F411
:102A60004052E168114301612168C86849F20C6273
:102A700090432369A268E5691A4363692B431A43AB
:102A80000243CA602168486920F44072A06910437B
:102A90004861E1696425B1F5004F9748974A21687C
:102AA0004FF032083FD0914201D081427CD1FEF7F5
:102AB0008BFC00EBC00101EB001061688900B0FBEA
:102AC000F1F6FEF781FC00EBC00101EB001061683C
:102AD0008900B0FBF1F0B0FBF5F06FF0180148434E
:102AE00006EB800108EB0110B0FBF5F000F0F006FA
:102AF000FEF76AFC00EBC00101EB00106168890081
:102B0000B0FBF1F0B0FBF5F006EB0016FEF75CFC55
:102B100000EBC00101EB001061688900B0FBF1F728
:102B2000FEF752FCD2E0914201D081423DD1FEF746
:102B30004BFC00EBC00101EB001061684900B0FBE9
:102B4000F1F0B0FBF5F00601FEF73EFC00EBC00132
:102B500001EB001061684900B0FBF1F7FEF734FCAF
:102B600000EBC00101EB001061684900B0FBF1F01F
:102B7000B0FBF5F06FF01801484307EB800108EB5C
:102B8000C100B0FBF5F000F0F80006EB4006FEF7E0
:102B90001BFC00EBC00101EB001061684900B0FBB9
:102BA000F1F7FEF711FC3CE055E0FEF7FDFB00EB12
:102BB000C00101EB001061684900B0FBF1F0B0FB0F
:102BC000F5F00601FEF7F0FB00EBC00101EB001091
:102BD00061684900B0FBF1F7FEF7E6FB00EBC001CE
:102BE00001EB001061684900B0FBF1F0B0FBF5F0BB
:102BF0006FF01801484307EB800108EBC100B0FB00
:102C0000F5F000F0F80006EB4006FEF7CDFB00EB18
:102C1000C00101EB001061684900B0FBF1F7FEF75D
:102C2000C3FB00EBC00101EB001061684900B0FB81
:102C3000F1F0B0FBF5F06FF01801484307EB8001AD
:102C400008EBC100B0FBF5F000F00700216830444C
:102C50008860BDE8F081FEF7A7FB00EBC00101EB47
:102C6000001061688900B0FBF1F6FEF79DFB00EBF8
:102C7000C00101EB001061688900B0FBF1F0B0FB0E
:102C8000F5F06FF01801484306EB800108EB0110E6
:102C9000B0FBF5F000F0F006FEF786FB00EBC0019C
:102CA00001EB001061688900B0FBF1F0B0FBF5F0BA
:102CB00006EB0016FEF778FB00EBC00101EB0010FD
:102CC00061688900B0FBF1F7FEF76EFB00EBC00115
:102CD00001EB001061688900B0FBF1F0B0FBF5F08A
:102CE0006FF01801484307EB800108EB0110B0FBBF
:102CF000F5F000F00F00A9E70014014000100140BA
:102D000090F83910212901D0022070478168B1F56F
:102D1000805F016A0BD04A1C026202680978516028
:102D2000C18C491E0904090CC1840ED017E0098822
:102D30000268C1F30801516001690029016A02D0EB
:102D4000491C0162ECE7891CFBE70168CA6822F0B4
:102D50008002CA600068C16841F04001C160002083
:102D6000704700000148FEF7E5BE00008C0400201B
:102D70000148FEF7DFBE0000CC0400200148FEF74A
:102D8000D9BE00000C0500200148FEF7D3BE0000AC
:102D90004C050020FEE702E008C8121F08C1002A07
:102DA000FAD170477047002001E001C1121F002ACC
:102DB000FBD170472DED028BFEF7CEF9FFF75AFCE1
:102DC000FFF792F9FFF77AF9FFF7CEFBFFF7E8FB81
:102DD000FFF702FCFFF71CFCFFF7AAFBFFF71EFA48
:102DE000FFF7E2F8FFF7D0FAFFF71EFBFFF76CFBE7
:102DF000FFF77CFA00F0B2F9B64B4FF4FA67012204
:102E00003946184600F000FA7C0002222146184696
:102E100000F0FAF941F2707503222946184600F0D5
:102E2000F3F9660004223146184600F0EDF901225C
:102E300093073946184600F0E7F902222146184662
:102E400000F0E2F903222946184600F0DDF90422D9
:102E50003146184600F0D8F99F4B012239461846F2
:102E600000F0D2F902222146184600F0CDF90322E3
:102E70002946184600F0C8F904223146184600F0E9
:102E8000C3F9964B01223946184600F0BDF90222DB
:102E90002146184600F0B8F903222946184600F0EA
:102EA000B3F904223146184600F0AEF98C4B0122EA
:102EB0003946184600F0A8F902222146184600F0CB
:102EC000A3F90A2287498848FEF7C8FF042287A190
:102ED0008548FFF747F883490A2214318548FEF7F1
:102EE000BDFF042284A18348FFF73CF87D490A22F4
:102EF00028318348FEF7B2FF042282A18048FFF701
:102F000031F878490A223C318048FEF7A7FF0422B5
:102F10007FA17E48FFF726F872490A2250317E4889
:102F2000FEF79CFF04227DA17B48FFF71BF86D494B
:102F3000C82264317B48FDF71BFE6A4F4FF0000842
:102F400064379FED798B7A4CDFF8E8A14FF4807BF2
:102F500007F5F27984ED028B84F8008084F8018013
:102F600025784046C6B206EB860005EB400037F8F0
:102F70001000FDF7F0FA94ED021B53EC112BFDF756
:102F800062F9C4E90201761CF0B260701428E9D33A
:102F90009FED690B53EC102B94ED020B51EC100BD1
:102FA000FDF7F8F99FED661B53EC112BFDF764FA62
:102FB0009FED651B53EC112BFDF7ECF9644AB0EE65
:102FC000480A02EBC5026D1CC2E90001F0EE680A76
:102FD000E8B284ED020B20700A28BFD399F80000F4
:102FE0004D4608B1012200E0002208215046FEF7BC
:102FF0009FF8687808B1012200E0002210215046B5
:10300000FEF796F8A87808B1012200E000222021FE
:103010005046FEF78DF8E87808B1012200E0002262
:1030200040215046FEF784F8287908B1012200E0DB
:10303000002280215046FEF77BF8687908B1012212
:1030400000E0002259465046FEF772F8A87908B110
:10305000012200E000224FF400413E48FEF768F8EC
:10306000E87908B1012200E0002201213A48FEF788
:103070005FF8287A08B1012200E0002202213648D8
:10308000FEF756F8687A08B1012200E00022042118
:103090003148FEF74DF8A87A08B1012200E000227D
:1030A00008212D48FEF744F8E87A08B1012200E033
:1030B00000224FF400512748FEF73AF8287B08B168
:1030C000012200E000224FF480412248FEF730F850
:1030D00040E70000000001400004004000080040FC
:1030E00000400140200000208C040020316F6B0D57
:1030F0000A000000CC040020326F6B0D0A000000B3
:103100000C050020336F6B0D0A0000004C040020FA
:10311000346F6B0D0A0000004C050020366F6B0DFC
:103120000A000000780200200000000000000000FB
:1031300000000020001802406666666666660A4067
:10314000000000000000E440000000000000E03F3C
:1031500018020020000802400014024010B50021AF
:103160002448FEF7C9FC04212248FEF7C5FC0821CB
:103170002048FEF7C1FC0C211E48FEF7BDFC0021D3
:103180001D48FEF7B9FC04211B48FEF7B5FC0821D9
:103190001948FEF7B1FC0C211748FEF7ADFC0021E1
:1031A0001648FEF7A9FC04211448FEF7A5FC0821E7
:1031B0001248FEF7A1FC0C211048FEF79DFC0021EF
:1031C0000F48FEF799FC04210D48FEF795FC0821F5
:1031D0000B48FEF791FC0C210948FEF78DFC0021FD
:1031E0000848FEF789FCBDE8104004210548FEF7B9
:1031F00083BC0000200300205C0300209803002013
:10320000D403002010040020012A07D0022A07D08E
:10321000032A07D0042A00D1016470474163704734
:1032200081637047C16370470006101600061016D0
:103230000000000000000000010203040607080966
:1032400000000000010203046832000800000020B2
:1032500020000000962D0008883200082000002081
:1032600070090000A62D000800000000000000000A
:10327000000000000000000001000000100000003D
:08328000000000000024F4002E
:040000050800018965
:00000001FF
